:100000000C9475000C9492000C9492000C94920045
:100010000C9492000C9492000C9492000C94920018
:100020000C9492000C9492000C9492000C94920008
:100030000C9492000C9492000C9492000C949200F8
:100040000C9492000C9492000C9492000C949200E8
:100050000C9492000C9492000C9492000C949200D8
:100060000C9492000C94920007634236B79BD8A779
:100070001A39685618AEBAAB558C1D3CB7CC5763CD
:10008000BD6DEDFD753EF6177231BF000000803F7B
:1000900008000000BE922449123EABAAAA2ABECD97
:1000A000CCCC4C3E00000080BEABAAAAAA3E000009
:1000B0000000BF000000803F000000000008417801
:1000C000D3BB4387D1133D190E3CC3BD4282AD2B38
:1000D0003E68EC8276BED98FE1A93E4C80EFFFBE30
:1000E00001C4FF7F3F000000000011241FBECFEFBE
:1000F000D8E0DEBFCDBF11E0A0E0B1E0EAEDFDE069
:1001000002C005900D92A832B107D9F721E0A8E20C
:10011000B1E001C01D92AE36B207E1F70E94BD0109
:100120000C94EB060C940000CF92DF92EF92FF92BA
:100130006B017C018CE491E00E94D6028AE291E09E
:100140000E94D60210922901B701A6018CE491E029
:100150000E94F102B701A6018AE291E00E94F10239
:10016000809129018F5F80932901883068F3FF9087
:10017000EF90DF90CF9008958F929F92AF92BF92B1
:10018000CF92DF92EF92FF92CF936B017C018CE4D0
:1001900091E00E940703B701A6018CE491E00E9460
:1001A000F1021092290160E0C12CD12C7601C1E04E
:1001B000E62FF0E0EE0FFF1FEE0FFF1FEC5EFE4F8D
:1001C00080809180A280B3808CE491E00E944E03F5
:1001D0009B01AC01C501B4010E9463049B01AC0109
:1001E000C701B6010E9464036B017C016091290183
:1001F000662339F1E62FF0E0EE0FFF1FEE0FFF1F31
:10020000E050FF4F80809180A280B3808AE291E02D
:100210000E944E039B01AC01C501B4010E9463041E
:100220009B01AC01C701B6010E9463036B017C0115
:10023000609129016F5F60932901653008F4B8CFA0
:1002400004C0C09329016C2FB3CF209100013091DD
:1002500001014091020150910301C701B6010E94C2
:1002600063046B017C018AE291E00E940703B701FD
:10027000A6018AE291E00E94F102C701B601CF9186
:10028000FF90EF90DF90CF90BF90AF909F908F90B6
:1002900008951092C5008093C40088E18093C10046
:1002A00086E08093C2000895E0ECF0E0908195FF35
:1002B000FDCF8093C6000895EF92FF920F931F9396
:1002C000CF93DF9300D000D0CDB7DEB769837A83B8
:1002D0008B839C838E010F5F1F4F7E0185E0E80EAC
:1002E000F11CF80181918F010E9454010E151F0528
:1002F000C1F70F900F900F900F90DF91CF911F914A
:100300000F91FF90EF90089584B5826084BD85B50C
:10031000856085BD16BC8BE987BD0895E0E8F0E0F7
:1003200080818083E1E8F0E08081896080831092A1
:100330008500109284008FE79EE390938B0080935A
:100340008A00089580E480937C0087E880937A0097
:100350000895ECE7F0E09081987F8770892B808387
:10036000EAE7F0E0808180648083808186FDFDCFB4
:1003700080917800909179000895CF93DF93CDB765
:10038000DEB7CC54D1090FB6F894DEBF0FBECDBF97
:1003900087E60E944901CE0101960E94D602CE0155
:1003A00083960E94D6020E9484010E948E010E94C0
:1003B000A201389A409A10E000E0312C212CA99B30
:1003C00007C0CE0183960E942B030E945C01A99A6C
:1003D000B29BF5CF81E00E94A901BC0180E090E0D2
:1003E0000E94D0036B017C0120E030E040EC50E43F
:1003F0000E94D0044B015C0120E030E040EA50E470
:10040000C701B6010E94D0042B013C0120E030E07E
:1004100040E850E4C701B6010E94D00429966CAFB1
:100420007DAF8EAF9FAF299720E030E040E450E4ED
:10043000C701B6010E94D0042D966CAF7DAF8EAF80
:100440009FAF2D9722EA38EA47E15AEAC501B40185
:100450000E9463044B015C0127E734EE4DED5FE23F
:10046000C301B2010E9463049B01AC01C501B40148
:100470000E9464034B015C0126E938EF4AEF54EB1C
:1004800029966CAD7DAD8EAD9FAD29970E9463041A
:100490009B01AC01C501B4010E9464034B015C01E6
:1004A00029E236E04AE859E32D966CAD7DAD8EAD7C
:1004B0009FAD2D970E9463049B01AC01C501B4015F
:1004C0000E9464034B015C01A7019601C701B601BC
:1004D0000E94630429E93AE248E95DEB0E94630463
:1004E0009B01AC01C501B4010E9464034B015C0196
:1004F0002FE43FEA42E251E4C701B6010E946304DF
:100500009B01AC01C501B4010E94640320E23AE5FD
:1005100043E054E40E946303D62EE72EF82EC92E42
:10052000262F372F482F592F612F702F832D922D73
:100530000E945E0418169CF4212F302F432D522D5B
:100540006D2D7E2D8F2D9C2D0E94630320E030E0C9
:1005500044EB53E40E9464034B015C010CC0212F67
:10056000302F432D522D6D2D7E2D8F2D9C2D0E94D1
:1005700063034B015C0180912801811107C0C50113
:10058000B4010E94940081E080932801C501B40168
:100590000E94BC00AB01BC01CE0183960E94DA022E
:1005A000B19A1D2D0E2D3F2C2C2C09CFFC0110A231
:1005B00011A20895FC0191A1DF0184E0989FA00D94
:1005C000B11D11244D935D936D937C9313979F5FA1
:1005D000977091A380A1981303C09F5F977090A319
:1005E0000895FC0190A19150977090A381A1981358
:1005F00004C08FEF890F877081A384E0989FE00D7E
:10060000F11D112440835183628373830895DC01BB
:1006100091969C919197E92FF0E0319790968C916B
:100620009097981779F0EE0FFF1FEE0FFF1FEA0F5C
:10063000FB1F5081418132812381915097709196A7
:100640009C9304C050E040E030E020E0652F742F20
:10065000832F922F0895DC0190969C919097E92F1B
:10066000F0E091968C919197981779F0EE0FFF1F1B
:10067000EE0FFF1FEA0FFB1F508141813281238162
:100680009F5F977090969C9304C050E040E030E0EC
:1006900020E0652F742F832F922F0895FC0120A155
:1006A00031A1231761F0620F677024E0629FE00DB3
:1006B000F11D11246081718182819381089560E030
:1006C00070E0CB0108955058BB27AA270E947B03F6
:1006D0000C9424040E94160438F00E941D0420F09B
:1006E00039F49F3F19F426F40C9413040EF4E095AA
:1006F000E7FB0C940D04E92F0E94350458F3BA1758
:10070000620773078407950720F079F4A6F50C9427
:1007100057040EF4E0950B2EBA2FA02D0B01B90152
:1007200090010C01CA01A0011124FF27591B99F067
:10073000593F50F4503E68F11A16F040A22F232F73
:10074000342F4427585FF3CF469537952795A795C3
:10075000F0405395C9F77EF41F16BA0B620B730B6A
:10076000840BBAF09150A1F0FF0FBB1F661F771FDB
:10077000881FC2F70EC0BA0F621F731F841F48F490
:10078000879577956795B795F7959E3F08F0B0CF19
:100790009395880F08F09927EE0F97958795089500
:1007A000E89409C097FB3EF490958095709561950B
:1007B0007F4F8F4F9F4F9923A9F0F92F96E9BB27C1
:1007C0009395F695879577956795B795F111F8CF3D
:1007D000FAF4BB0F11F460FF1BC06F5F7F4F8F4FA8
:1007E0009F4F16C0882311F096E911C0772321F09E
:1007F0009EE8872F762F05C0662371F096E8862F36
:1008000070E060E02AF09A95660F771F881FDAF78C
:10081000880F9695879597F9089597F99F6780E8CF
:1008200070E060E008959FEF80EC089500240A9442
:100830001616170618060906089500240A941216BB
:100840001306140605060895092E0394000C11F4EE
:10085000882352F0BB0F40F4BF2B11F460FF04C09B
:100860006F5F7F4F8F4F9F4F089557FD9058440FF4
:10087000551F59F05F3F71F04795880F97FB991FFF
:1008800061F09F3F79F087950895121613061406BC
:10089000551FF2CF4695F1DF08C016161706180649
:1008A000991FF1CF86957105610508940895E89424
:1008B000BB2766277727CB0197F908950E945A0531
:1008C00008F48FEF08950E9476040C9424040E948B
:1008D000160438F00E941D0420F0952311F00C94AA
:1008E0000D040C94130411240C9458040E94350434
:1008F00070F3959FC1F3950F50E0551F629FF00173
:10090000729FBB27F00DB11D639FAA27F00DB11D8B
:10091000AA1F649F6627B00DA11D661F829F222714
:10092000B00DA11D621F739FB00DA11D621F839F9B
:10093000A00D611D221F749F3327A00D611D231F71
:10094000849F600D211D822F762F6A2F11249F57BF
:1009500050409AF0F1F088234AF0EE0FFF1FBB1FC2
:10096000661F771F881F91505040A9F79E3F510581
:1009700080F00C940D040C9458045F3FE4F3983E0F
:10098000D4F3869577956795B795F795E7959F5F2B
:10099000C1F7FE2B880F911D9695879597F90895BD
:1009A000FA01EE0FFF1F309621053105A1F1611507
:1009B000710561F48038BFE39B0749F16894903872
:1009C000810561F08038BFEF9B0741F099234AF51C
:1009D000FF3FE1053105210519F1E8940894E795F9
:1009E000D901AA2329F4AB2FBE2FF85FD0F310C092
:1009F000FF5F70F4A695E0F7F73950F019F0FF3A71
:100A000038F49F779F930DD00F9007FC905808956E
:100A100046F00C94130460E070E080E89FE30895D2
:100A20004FE79F775F934F933F932F930E94EF057C
:100A30002F913F914F915F910E9463040C94280580
:100A400029F416F00C940D040C9457040C94130420
:100A50000E943D04A8F39638A0F707F80F92E89497
:100A60002BE33AEA48EB5FE70E9479040F920F927A
:100A70000F924DB75EB70F920E943706E8E6F0E09E
:100A80000E947E054F915F91EF91FF91E595EE1FDA
:100A9000FF1F49F0FE57E0684427EE0F441FFA9508
:100AA000E1F74195550B0E94B1050F9007FE0C949C
:100AB000A5050895990F0008550FAA0BE0E8FEEF71
:100AC00016161706E807F907C0F012161306E40712
:100AD000F50798F0621B730B840B950B39F40A260B
:100AE00061F0232B242B252B21F408950A2609F4E9
:100AF000A140A6958FEF811D811D0895DF93CF93AF
:100B00001F930F93FF92EF92DF927B018C01689409
:100B100006C0DA2EEF010E947604FE01E894A5914A
:100B20002591359145915591A6F3EF010E947B03E4
:100B3000FE019701A801DA9469F7DF90EF90FF902A
:100B40000F911F91CF91DF9108959B01AC0160E05F
:100B500070E080E89FE30C946B060C940D040C94F9
:100B6000DD060E943D04D8F39923C9F3940F511D6B
:100B7000A3F39150504094F059F0882332F0660F5F
:100B8000771F881F91505040C1F79E3F51052CF7A9
:100B9000880F911D9695879597F908955F3FACF062
:100BA000983E9CF0BB27869577956795B79508F496
:100BB000B1609395C1F7BB0F58F711F460FFE8CF10
:100BC0006F5F7F4F8F4F9F4FE3CF0C94580416F009
:100BD0000C94DD060C94130468940C940D040E948C
:100BE0003D04A8F39923C1F3AEF3DF93CF931F9392
:100BF0000F93FF92C92FDD2788232AF02197660FD4
:100C0000771F881FDAF720E030E040E85FEB9FE3D2
:100C1000883920F0803E38F021968F770E94640357
:100C2000E0E9F0E004C00E946403EDEBF0E00E9414
:100C30007E058B01BE01EC01FB2E6F577109759586
:100C4000771F880B990B0E94D20328E132E741E31A
:100C50005FE30E947604AF2D9801AE01FF900F91E3
:100C60001F91CF91DF910E947B030C942404FA0121
:100C7000DC01AA0FBB1F9B01AC01BF5728F4222740
:100C800033274427507820C0B75190F4AB2F00246D
:100C9000469537952795011CA395D2F3002071F056
:100CA000220F331F441FB395DAF30ED00C94630365
:100CB00061307105A0E88A07B94630F49B01AC01A8
:100CC0006627772788279078309621F02083318314
:100CD0004283538308950E947F060C9424040E944B
:100CE0001D0458F00E94160440F029F45F3F29F0DB
:100CF0000C940D0451110C9458040C9413040E948C
:100D0000350468F39923B1F3552391F3951B550BE3
:100D1000BB27AA2762177307840738F09F5F5F4FCE
:100D2000220F331F441FAA1FA9F335D00E2E3AF00D
:100D3000E0E832D091505040E695001CCAF72BD025
:100D4000FE2F29D0660F771F881FBB1F2617370776
:100D50004807AB07B0E809F0BB0B802DBF01FF27A8
:100D600093585F4F3AF09E3F510578F00C940D0474
:100D70000C9458045F3FE4F3983ED4F3869577953E
:100D80006795B795F7959F5FC9F7880F911D969561
:100D9000879597F90895E1E0660F771F881FBB1FBD
:100DA000621773078407BA0720F0621B730B840B6A
:100DB000BA0BEE1F88F7E09508959F3F31F09150F0
:100DC00020F4879577956795B795880F911D96952F
:0A0DD000879597F90895F894FFCF76
:100DDA000000803F00000000FED4F83E0000000042
:100DEA0097FF903C1283C03DF775C03EC05B103F31
:080DFA00F775C03E1283C03DF5
:00000001FF
