:100000000C9475000C9492000C9492000C94920045
:100010000C9492000C9492000C9492000C94920018
:100020000C9492000C9492000C9492000C94920008
:100030000C9492000C9492000C9492000C949200F8
:100040000C9492000C9492000C9492000C949200E8
:100050000C9492000C9492000C9492000C949200D8
:100060000C9492000C94920007634236B79BD8A779
:100070001A39685618AEBAAB558C1D3CB7CC5763CD
:10008000BD6DEDFD753EF6177231BF000000803F7B
:1000900008000000BE922449123EABAAAA2ABECD97
:1000A000CCCC4C3E00000080BEABAAAAAA3E000009
:1000B0000000BF000000803F000000000008417801
:1000C000D3BB4387D1133D190E3CC3BD4282AD2B38
:1000D0003E68EC8276BED98FE1A93E4C80EFFFBE30
:1000E00001C4FF7F3F000000000011241FBECFEFBE
:1000F000D8E0DEBFCDBF11E0A0E0B1E0E8EEFDE06A
:1001000002C005900D92A832B107D9F721E0A8E20C
:10011000B1E001C01D92AE3AB207E1F70E94BD0105
:100120000C94F2060C940000CF92DF92EF92FF92B3
:100130006B017C018CE691E00E94DB028AE291E097
:100140000E94DB0210922901B701A6018CE691E022
:100150000E94ED02B701A6018AE291E00E94ED0241
:10016000809129018F5F80932901883068F3FF9087
:10017000EF90DF90CF9008958F929F92AF92BF92B1
:10018000CF92DF92EF92FF92CF936B017C018CE6CE
:1001900091E00E940803B701A6018CE691E00E945D
:1001A000ED021092290160E0C12CD12C7601C1E052
:1001B000E62FF0E0EE0FFF1FEE0FFF1FEC5EFE4F8D
:1001C00080809180A280B3808CE691E00E944403FD
:1001D0009B01AC01C501B4010E948E049B01AC01DE
:1001E000C701B6010E945E036B017C016091290189
:1001F000662339F1E62FF0E0EE0FFF1FEE0FFF1F31
:10020000E050FF4F80809180A280B3808AE291E02D
:100210000E9444039B01AC01C501B4010E948E04FD
:100220009B01AC01C701B6010E945D036B017C011B
:10023000609129016F5F60932901653008F4B8CFA0
:1002400004C0C09329016C2FB3CF209100013091DD
:1002500001014091020150910301C701B6010E94C2
:100260008E046B017C018AE291E00E940803B701D1
:10027000A6018AE291E00E94ED02C701B601CF918A
:10028000FF90EF90DF90CF90BF90AF909F908F90B6
:1002900008951092C5008093C40088E18093C10046
:1002A00086E08093C2000895E0ECF0E0908195FF35
:1002B000FDCF8093C6000895EF92FF920F931F9396
:1002C000CF93DF9300D000D0CDB7DEB769837A83B8
:1002D0008B839C838E010F5F1F4F7E0185E0E80EAC
:1002E000F11CF80181918F010E9454010E151F0528
:1002F000C1F70F900F900F900F90DF91CF911F914A
:100300000F91FF90EF90089584B5826084BD85B50C
:10031000856085BD16BC8BE987BD0895E0E8F0E0F7
:1003200080818083E1E8F0E08081896080831092A1
:100330008500109284008FE79EE390938B0080935A
:100340008A00089580E480937C0087E880937A0097
:100350000895ECE7F0E09081987F8770892B808387
:10036000EAE7F0E0808180648083808186FDFDCFB4
:1003700080917800909179000895CF93DF93CDB765
:10038000DEB7C455D1090FB6F894DEBF0FBECDBF9E
:1003900087E60E944901CE0101960E94DB02CE0150
:1003A0008D5B9F4F0E94E2020E9484010E948E0199
:1003B0000E94A201389A409A812C912C540110E09D
:1003C00000E0312C212CA99B05C0C501B4010E947D
:1003D0005C01A99AB19BDFC081E00E94A901BC0128
:1003E00080E090E00E9400046B017C0120E030E09E
:1003F00040EC50E40E94FB044B015C0120E030E043
:1004000040EA50E4C701B6010E94FB042B013C0105
:1004100020E030E040E850E4C701B6010E94FB0450
:1004200061966CAF7DAF8EAF9FAF619720E030E0FB
:1004300040E450E4C701B6010E94FB0465966CAF2E
:100440007DAF8EAF9FAF659725EA36E845EE59EA56
:10045000C501B4010E948E044B015C0126E536E41F
:1004600048EA5FE2C301B2010E948E049B01AC0125
:10047000C501B4010E945E034B015C012BEE30ED1F
:100480004DEB54EB61966CAD7DAD8EAD9FAD61973C
:100490000E948E049B01AC01C501B4010E945E0361
:1004A0004B015C012BE63CE84EE459E365966CADEC
:1004B0007DAD8EAD9FAD65970E948E049B01AC0112
:1004C000C501B4010E945E034B015C01A7019601C6
:1004D000C701B6010E948E042DEA39E64EE55DEBB8
:1004E0000E948E049B01AC01C501B4010E945E0311
:1004F0004B015C012DE635EC46EE50E4C701B60138
:100500000E948E049B01AC01C501B4010E945E03F0
:1005100027EE33E441EB53E40E945D030E94CA03DB
:100520009B01772324F422273327261B370BB9019D
:10053000330F880B990B0E940204C62ED72EE82E8B
:10054000F92E212F302F432D522D0E945D032AE6D4
:100550003BE046E35BE30E948E0420E030E04AE7A4
:1005600054E40E948E044B015C01809128018111AA
:1005700007C0C501B4010E94940081E08093280166
:10058000C501B4010E94BC004B015C01B19A1C2D55
:100590000D2D3E2C2F2CCE018D5B9F4F0E94E6022D
:1005A000882309F410CFCE018D5B9F4F0E94330347
:1005B0000E94540108CFFC01E05CFF4F108231968D
:1005C00010820895FC01108611860895FC01918522
:1005D0008085981B892F877008959C01FC01E05C41
:1005E000FF4F908191509F70908331968081981336
:1005F00004C08FEF890F8F708083F90184E0989F8A
:10060000E00DF11D112440835183628373830895AB
:100610009C01FC01EF5BFF4F9081E92FF0E03197E7
:10062000D901A05CBF4F8C919817A1F0EE0FFF1F6E
:10063000EE0FFF1FE20FF31F608151814281838122
:10064000F901EF5BFF4F91509F709083E62F342F9D
:10065000282F04C0E0E050E030E020E06E2F752F3E
:10066000832F922F0895FC019085292F30E08185FA
:10067000981741F0DF01A20FB31F8C919F5F9F700D
:100680009087089580E00895FC01E05CFF4F208191
:1006900031963081231769F0620F6F70FC0124E0FE
:1006A000629FE00DF11D112460817181828193812F
:1006B000089560E070E0CB0108955058BB27AA2749
:1006C0000E9475030C9454040E94460438F00E9462
:1006D0004D0420F039F49F3F19F426F40C944304A0
:1006E0000EF4E095E7FB0C943D04E92F0E946504AD
:1006F00058F3BA17620773078407950720F079F457
:10070000A6F50C9487040EF4E0950B2EBA2FA02DBD
:100710000B01B90190010C01CA01A0011124FF27AE
:10072000591B99F0593F50F4503E68F11A16F040A9
:10073000A22F232F342F4427585FF3CF46953795A8
:100740002795A795F0405395C9F77EF41F16BA0B6D
:10075000620B730B840BBAF09150A1F0FF0FBB1F1B
:10076000661F771F881FC2F70EC0BA0F621F731F64
:10077000841F48F4879577956795B795F7959E3FC1
:1007800008F0B0CF9395880F08F09927EE0F979552
:10079000879508950E94D1036894B1110C94880440
:1007A00008950E946D0488F09F5798F0B92F9927FB
:1007B000B751B0F0E1F0660F771F881F991F1AF04C
:1007C000BA95C9F714C0B13091F00E948704B1E026
:1007D00008950C948704672F782F8827B85F39F025
:1007E000B93FCCF3869577956795B395D9F73EF4E5
:1007F00090958095709561957F4F8F4F9F4F08958D
:10080000E89409C097FB3EF49095809570956195AA
:100810007F4F8F4F9F4F9923A9F0F92F96E9BB2760
:100820009395F695879577956795B795F111F8CFDC
:10083000FAF4BB0F11F460FF1BC06F5F7F4F8F4F47
:100840009F4F16C0882311F096E911C0772321F03D
:100850009EE8872F762F05C0662371F096E8862FD5
:1008600070E060E02AF09A95660F771F881FDAF72C
:10087000880F9695879597F9089597F99F6780E86F
:1008800070E060E008959FEF80EC089500240A94E2
:100890001616170618060906089500240A9412165B
:1008A0001306140605060895092E0394000C11F48E
:1008B000882352F0BB0F40F4BF2B11F460FF04C03B
:1008C0006F5F7F4F8F4F9F4F089557FD9058440F94
:1008D000551F59F05F3F71F04795880F97FB991F9F
:1008E00061F09F3F79F0879508951216130614065C
:1008F000551FF2CF4695F1DF08C0161617061806E9
:10090000991FF1CF86957105610508940895E894C3
:10091000BB2766277727CB0197F908950E94A1048A
:100920000C9454040E94460438F00E944D0420F0B8
:10093000952311F00C943D040C94430411240C9461
:1009400088040E94650470F3959FC1F3950F50E0F1
:10095000551F629FF001729FBB27F00DB11D639F71
:10096000AA27F00DB11DAA1F649F6627B00DA11D17
:10097000661F829F2227B00DA11D621F739FB00DBD
:10098000A11D621F839FA00D611D221F749F33272D
:10099000A00D611D231F849F600D211D822F762FC6
:1009A0006A2F11249F5750409AF0F1F088234AF0A3
:1009B000EE0FFF1FBB1F661F771F881F915050400F
:1009C000A9F79E3F510580F00C943D040C948804D7
:1009D0005F3FE4F3983ED4F3869577956795B79596
:1009E000F795E7959F5FC1F7FE2B880F911D9695B0
:1009F000879597F90895FA01EE0FFF1F30962105AC
:100A00003105A1F16115710561F48038BFE39B07E1
:100A100049F168949038810561F08038BFEF9B07F9
:100A200041F099234AF5FF3FE1053105210519F110
:100A3000E8940894E795D901AA2329F4AB2FBE2F97
:100A4000F85FD0F310C0FF5F70F4A695E0F7F739B8
:100A500050F019F0FF3A38F49F779F930DD00F9024
:100A600007FC9058089546F00C94430460E070E051
:100A700080E89FE308954FE79F775F934F933F93FD
:100A80002F930E94F6052F913F914F915F910E9405
:100A90008E040C94530529F416F00C943D040C9428
:100AA00087040C9443040E946D04A8F39638A0F7C1
:100AB00007F80F92E8942BE33AEA48EB5FE70E94CD
:100AC000A4040F920F920F924DB75EB70F920E943F
:100AD0003E06E8E6F0E00E9485054F915F91EF91B8
:100AE000FF91E595EE1FFF1F49F0FE57E068442790
:100AF000EE0F441FFA95E1F74195550B0E94B8059A
:100B00000F9007FE0C94AC050895DF93CF931F93CD
:100B10000F93FF92EF92DF927B018C01689406C0E5
:100B2000DA2EEF010E94A104FE01E894A59125911F
:100B3000359145915591A6F3EF010E947503FE0191
:100B40009701A801DA9469F7DF90EF90FF900F9179
:100B50001F91CF91DF9108959B01AC0160E070E09F
:100B600080E89FE30C9472060C943D040C94E40618
:100B70000E946D04D8F39923C9F3940F511DA3F378
:100B80009150504094F059F0882332F0660F771F4F
:100B9000881F91505040C1F79E3F51052CF7880F98
:100BA000911D9695879597F908955F3FACF0983E13
:100BB0009CF0BB27869577956795B79508F4B1604B
:100BC0009395C1F7BB0F58F711F460FFE8CF6F5F43
:100BD0007F4F8F4F9F4FE3CF0C94880416F00C94F7
:100BE000E4060C94430468940C943D040E946D0444
:100BF000A8F39923C1F3AEF3DF93CF931F930F9321
:100C0000FF92C92FDD2788232AF02197660F771FCF
:100C1000881FDAF720E030E040E85FEB9FE3883997
:100C200020F0803E38F021968F770E945E03E0E945
:100C3000F0E004C00E945E03EDEBF0E00E94850549
:100C40008B01BE01EC01FB2E6F5771097595771F63
:100C5000880B990B0E94020428E132E741E35FE32D
:100C60000E94A104AF2D9801AE01FF900F911F913A
:100C7000CF91DF910E9475030C945404FA01DC01BA
:100C8000AA0FBB1F9B01AC01BF5728F422273327B3
:100C90004427507820C0B75190F4AB2F00244695DC
:100CA00037952795011CA395D2F3002071F0220FF0
:100CB000331F441FB395DAF30ED00C945D036130FB
:100CC0007105A0E88A07B94630F49B01AC0166279C
:100CD000772788279078309621F0208331834283CC
:100CE000538308950E9486060C9454040E944D0478
:100CF00058F00E94460440F029F45F3F29F00C941C
:100D00003D0451110C9488040C9443040E94650422
:100D100068F39923B1F3552391F3951B550BBB272A
:100D2000AA2762177307840738F09F5F5F4F220F6F
:100D3000331F441FAA1FA9F335D00E2E3AF0E0E866
:100D400032D091505040E695001CCAF72BD0FE2FB0
:100D500029D0660F771F881FBB1F26173707480744
:100D6000AB07B0E809F0BB0B802DBF01FF279358FC
:100D70005F4F3AF09E3F510578F00C943D040C947F
:100D800088045F3FE4F3983ED4F3869577956795A2
:100D9000B795F7959F5FC9F7880F911D9695879531
:100DA00097F90895E1E0660F771F881FBB1F621750
:100DB00073078407BA0720F0621B730B840BBA0B0E
:100DC000EE1F88F7E09508959F3F31F0915020F491
:100DD000879577956795B795880F911D9695879517
:080DE00097F90895F894FFCF84
:100DE8000000803FD402C9BF4C47A33FB803F8BEF8
:100DF800350D9C3D7411983C7411983D2F1AE43DB3
:080E08007411983D7411983C2F
:00000001FF
