:100000000C9434000C9451000C9451000C94510049
:100010000C9451000C9451000C9451000C9451001C
:100020000C9451000C9451000C9451000C9451000C
:100030000C9451000C9451000C9451000C945100FC
:100040000C9451000C9451000C9451000C945100EC
:100050000C9451000C9451000C9451000C945100DC
:100060000C9451000C94510011241FBECFEFD8E026
:10007000DEBFCDBF11E0A0E0B1E0E0E7F2E002C0FA
:1000800005900D92A030B107D9F721E0A0E0B1E0D2
:1000900001C01D92A030B207E1F70E94C7000C9486
:1000A00036010C9400001092C5008093C40088E1D2
:1000B0008093C10086E08093C2000895E0ECF0E0F8
:1000C000908195FFFDCF8093C6000895EF92FF9237
:1000D0000F931F93CF93DF9300D000D0CDB7DEB73F
:1000E00069837A838B839C838E010F5F1F4F7E0110
:1000F00085E0E80EF11CF80181918F010E945E00FD
:100100000E151F05C1F70F900F900F900F90DF9104
:10011000CF911F910F91FF90EF90089584B5826069
:1001200084BD85B5856085BD16BC8BE987BD089506
:10013000E0E8F0E080818083E1E8F0E080818960A0
:10014000808310928500109284008FE79EE3909345
:100150008B0080938A00089580E480937C0087E878
:1001600080937A000895ECE7F0E09081987F8770A3
:10017000892B8083EAE7F0E080818064808380813E
:1001800086FDFDCF80917800909179000895CF93FE
:10019000DF93CDB7DEB7C454D1090FB6F894DEBFF4
:1001A0000FBECDBF87E60E945300CE0101960E948C
:1001B000F500CE0183960E94F5000E948E000E94F9
:1001C00098000E94AC00389A409AA999A99AB29BCB
:1001D000FCCF81E00E94B300BC0180E090E00E946F
:1001E000F9000E946600B19AF0CFFC0110A211A2A2
:1001F0000895E89409C097FB3EF49095809570951A
:1002000061957F4F8F4F9F4F9923A9F0F92F96E962
:10021000BB279395F695879577956795B795F111D7
:10022000F8CFFAF4BB0F11F460FF1BC06F5F7F4F74
:100230008F4F9F4F16C0882311F096E911C0772386
:1002400021F09EE8872F762F05C0662371F096E88F
:10025000862F70E060E02AF09A95660F771F881F5E
:10026000DAF7880F9695879597F90895F894FFCF58
:00000001FF
