S01100004D6563682D4C6162322E7372656328
S11300000C9434000C9449000C9449000C9449005D
S11300100C9449000C9449000C9449000C94490038
S11300200C9449000C9449000C9449000C94490028
S11300300C9449000C9449000C9449000C94490018
S11300400C9449000C9449000C9449000C94490008
S11300500C9449000C9449000C9449000C944900F8
S11300600C9449000C94490011241FBECFEFD8E032
S1130070DEBFCDBF11E0A0E0B1E0E0EFF1E002C0EF
S113008005900D92A030B107D9F70E9486000C9418
S1130090F6000C9400001092C5008093C40088E11F
S11300A08093C10086E08093C2000895E0ECF0E004
S11300B0908195FFFDCF8093C6000895EF92FF9243
S11300C00F931F93CF93DF9300D000D0CDB7DEB74B
S11300D069837A838B839C838E010F5F1F4F7E011C
S11300E085E0E80EF11CF80181918F010E94560011
S11300F00E151F05C1F70F900F900F900F90DF9111
S1130100CF911F910F91FF90EF900895CF93DF93BC
S1130110CDB7DEB7C454D1090FB6F894DEBF0FBE15
S1130120CDBF87E60E944B00CE0101960E94B80025
S1130130CE0183960E94B80080E887B988B9A99B4C
S113014007C0CE0183960E94D3000E945E00A99A44
S1130150B19BF5CFCE0101960E94D30040E050E060
S113016060E87FE3CE0101960E94BC00B19AE7CF1C
S1130170FC0110A211A20895FC0191A1DF0184E009
S1130180989FA00DB11D11244D935D936D937C93A5
S113019013979F5F977091A380A1981303C09F5FEB
S11301A0977090A30895DC0190969C919097E92F05
S11301B0F0E091968C919197981779F0EE0FFF1FCC
S11301C0EE0FFF1FEA0FFB1F508141813281238113
S11301D09F5F977090969C9304C050E040E030E09D
S11301E020E0652F742F832F922F0895F894FFCF6A
S9030000FC
