:100000000C9475000C9492000C9492000C94920045
:100010000C9492000C9492000C9492000C94920018
:100020000C9492000C9492000C9492000C94920008
:100030000C9492000C9492000C9492000C949200F8
:100040000C9492000C9492000C9492000C949200E8
:100050000C9492000C9492000C9492000C949200D8
:100060000C9492000C94920007634236B79BD8A779
:100070001A39685618AEBAAB558C1D3CB7CC5763CD
:10008000BD6DEDFD753EF6177231BF000000803F7B
:1000900008000000BE922449123EABAAAA2ABECD97
:1000A000CCCC4C3E00000080BEABAAAAAA3E000009
:1000B0000000BF000000803F000000000008417801
:1000C000D3BB4387D1133D190E3CC3BD4282AD2B38
:1000D0003E68EC8276BED98FE1A93E4C80EFFFBE30
:1000E00001C4FF7F3F000000000011241FBECFEFBE
:1000F000D8E0DEBFCDBF11E0A0E0B1E0EAE3FCE074
:1001000002C005900D92A030B107D9F721E0A0E020
:10011000B1E001C01D92A638B207E1F70E9430019C
:100120000C941B060C940000CF92DF92EF92FF928A
:100130006B017C0184E491E00E94480282E091E03E
:100140000E94480210920101B701A60184E491E0E7
:100150000E945A02B701A60182E091E00E945A0271
:10016000809101018F5F80930101883068F3FF90D7
:10017000EF90DF90CF9008951092C5008093C40057
:1001800088E18093C10086E08093C2000895E0EC8E
:10019000F0E0908195FFFDCF8093C6000895EF9227
:1001A000FF920F931F93CF93DF9300D000D0CDB772
:1001B000DEB769837A838B839C838E010F5F1F4F29
:1001C0007E0185E0E80EF11CF80181918F010E940B
:1001D000C7000E151F05C1F70F900F900F900F90DD
:1001E000DF91CF911F910F91FF90EF90089584B50B
:1001F000826084BD85B5856085BD16BC8BE987BDF1
:100200000895E0E8F0E080818083E1E8F0E080811B
:100210008960808310928500109284008FE79EE3AE
:1002200090938B0080938A00089580E480937C00F3
:1002300087E880937A000895ECE7F0E09081987F5A
:100240008770892B8083EAE7F0E080818064808377
:10025000808186FDFDCF809178009091790008958E
:10026000CF93DF93CDB7DEB7C455D1090FB6F8945D
:10027000DEBF0FBECDBF87E60E94BC00CE01019657
:100280000E944802CE018D5B9F4F0E944F020E9448
:10029000F7000E9401010E941501389A409A812CB2
:1002A000912C540110E000E0312C212CA99B05C0B9
:1002B000C501B4010E94CF00A99AB19BD9C081E0C9
:1002C0000E941C01BC0180E090E00E9429036B01A8
:1002D0007C0120E030E040EC50E40E9424044B011B
:1002E0005C0120E030E040EA50E4C701B6010E9422
:1002F00024042B013C0120E030E040E850E4C70139
:10030000B6010E94240461966CAF7DAF8EAF9FAFA3
:10031000619720E030E040E450E4C701B6010E945C
:10032000240465966CAF7DAF8EAF9FAF659725EACD
:1003300036E845EE59EAC501B4010E94B7034B0106
:100340005C0126E536E448EA5FE2C301B2010E949F
:10035000B7039B01AC01C501B4010E9487024B01A8
:100360005C012BEE30ED4DEB54EB61966CAD7DAD49
:100370008EAD9FAD61970E94B7039B01AC01C50193
:10038000B4010E9487024B015C012BE63CE84EE47D
:1003900059E365966CAD7DAD8EAD9FAD65970E94BE
:1003A000B7039B01AC01C501B4010E9487024B0158
:1003B0005C01A7019601C701B6010E94B7032DEAAF
:1003C00039E64EE55DEB0E94B7039B01AC01C50128
:1003D000B4010E9487024B015C012DE635EC46EE2C
:1003E00050E4C701B6010E94B7039B01AC01C501EF
:1003F000B4010E94870227EE33E441EB53E40E94EC
:1004000086020E94F3029B01772324F422273327DC
:10041000261B370BB901330F880B990B0E942B0356
:10042000C62ED72EE82EF92E212F302F432D522DF8
:100430000E9486022AE63BE046E35BE30E94B703A4
:1004400020E030E04AE754E40E94B7034B015C012E
:1004500080910001811107C0C501B4010E94940080
:1004600081E080930001B19A1C2D0D2D3E2C2F2C84
:10047000CE018D5B9F4F0E945302882309F416CF53
:10048000CE018D5B9F4F0E9475020E94C7000ECF68
:10049000FC01E05CFF4F1082319610820895FC0150
:1004A000108611860895FC0191858085981B892FFF
:1004B000877008959C01FC01E05CFF4F9081915092
:1004C0009F70908331968081981304C08FEF890FBD
:1004D0008F708083F90184E0989FE00DF11D112455
:1004E00040835183628373830895FC019085292F93
:1004F00030E08185981741F0DF01A20FB31F8C9186
:100500009F5F9F709087089580E008955058BB27A3
:10051000AA270E949E020C947D030E946F0338F06C
:100520000E94760320F039F49F3F19F426F40C94CE
:100530006C030EF4E095E7FB0C946603E92F0E9430
:100540008E0358F3BA17620773078407950720F0E4
:1005500079F4A6F50C94B0030EF4E0950B2EBA2FA7
:10056000A02D0B01B90190010C01CA01A0011124B9
:10057000FF27591B99F0593F50F4503E68F11A1665
:10058000F040A22F232F342F4427585FF3CF4695F6
:1005900037952795A795F0405395C9F77EF41F1618
:1005A000BA0B620B730B840BBAF09150A1F0FF0FE2
:1005B000BB1F661F771F881FC2F70EC0BA0F621FCE
:1005C000731F841F48F4879577956795B795F795BE
:1005D0009E3F08F0B0CF9395880F08F09927EE0F53
:1005E0009795879508950E94FA026894B1110C942A
:1005F000B10308950E94960388F09F5798F0B92F91
:100600009927B751B0F0E1F0660F771F881F991F47
:100610001AF0BA95C9F714C0B13091F00E94B00336
:10062000B1E008950C94B003672F782F8827B85F46
:1006300039F0B93FCCF3869577956795B395D9F79F
:100640003EF490958095709561957F4F8F4F9F4FA9
:100650000895E89409C097FB3EF4909580957095B5
:1006600061957F4F8F4F9F4F9923A9F0F92F96E9FE
:10067000BB279395F695879577956795B795F11173
:10068000F8CFFAF4BB0F11F460FF1BC06F5F7F4F10
:100690008F4F9F4F16C0882311F096E911C0772322
:1006A00021F09EE8872F762F05C0662371F096E82B
:1006B000862F70E060E02AF09A95660F771F881FFA
:1006C000DAF7880F9695879597F9089597F99F67B8
:1006D00080E870E060E008959FEF80EC08950024CA
:1006E0000A941616170618060906089500240A9497
:1006F00012161306140605060895092E0394000C1D
:1007000011F4882352F0BB0F40F4BF2B11F460FFAB
:1007100004C06F5F7F4F8F4F9F4F089557FD9058D4
:10072000440F551F59F05F3F71F04795880F97FBB5
:10073000991F61F09F3F79F087950895121613066F
:100740001406551FF2CF4695F1DF08C0161617069E
:100750001806991FF1CF86957105610508940895D3
:10076000E894BB2766277727CB0197F908950E9465
:10077000CA030C947D030E946F0338F00E94760335
:1007800020F0952311F00C9466030C946C03112453
:100790000C94B1030E948E0370F3959FC1F3950FE3
:1007A00050E0551F629FF001729FBB27F00DB11DF5
:1007B000639FAA27F00DB11DAA1F649F6627B00D85
:1007C000A11D661F829F2227B00DA11D621F739F6E
:1007D000B00DA11D621F839FA00D611D221F749F7C
:1007E0003327A00D611D231F849F600D211D822FC3
:1007F000762F6A2F11249F5750409AF0F1F08823EA
:100800004AF0EE0FFF1FBB1F661F771F881F915016
:100810005040A9F79E3F510580F00C9466030C945C
:10082000B1035F3FE4F3983ED4F3869577956795DF
:10083000B795F795E7959F5FC1F7FE2B880F911D40
:100840009695879597F90895FA01EE0FFF1F309658
:1008500021053105A1F16115710561F48038BFE30F
:100860009B0749F168949038810561F08038BFEFAB
:100870009B0741F099234AF5FF3FE105310521052A
:1008800019F1E8940894E795D901AA2329F4AB2F2C
:10089000BE2FF85FD0F310C0FF5F70F4A695E0F7AD
:1008A000F73950F019F0FF3A38F49F779F930DD045
:1008B0000F9007FC9058089546F00C946C0360E08C
:1008C00070E080E89FE308954FE79F775F934F9331
:1008D0003F932F930E941F052F913F914F915F915E
:1008E0000E94B7030C947C0429F416F00C94660360
:1008F0000C94B0030C946C030E949603A8F39638F2
:10090000A0F707F80F92E8942BE33AEA48EB5FE789
:100910000E94CD030F920F920F924DB75EB70F92C8
:100920000E946705E8E6F0E00E94AE044F915F91F7
:10093000EF91FF91E595EE1FFF1F49F0FE57E0682C
:100940004427EE0F441FFA95E1F74195550B0E949D
:10095000E1040F9007FE0C94D5040895DF93CF9324
:100960001F930F93FF92EF92DF927B018C016894AB
:1009700006C0DA2EEF010E94CA03FE01E894A59199
:100980002591359145915591A6F3EF010E949E0264
:10099000FE019701A801DA9469F7DF90EF90FF90CC
:1009A0000F911F91CF91DF9108959B01AC0160E001
:1009B00070E080E89FE30C949B050C9466030C9414
:1009C0000D060E949603D8F39923C9F3940F511D85
:1009D000A3F39150504094F059F0882332F0660F01
:1009E000771F881F91505040C1F79E3F51052CF74B
:1009F000880F911D9695879597F908955F3FACF004
:100A0000983E9CF0BB27869577956795B79508F437
:100A1000B1609395C1F7BB0F58F711F460FFE8CFB1
:100A20006F5F7F4F8F4F9F4FE3CF0C94B10316F052
:100A30000C940D060C946C0368940C9466030E944D
:100A40009603A8F39923C1F3AEF3DF93CF931F93DB
:100A50000F93FF92C92FDD2788232AF02197660F75
:100A6000771F881FDAF720E030E040E85FEB9FE374
:100A7000883920F0803E38F021968F770E948702D7
:100A8000E0E9F0E004C00E948702EDEBF0E00E9494
:100A9000AE048B01BE01EC01FB2E6F5771097595F9
:100AA000771F880B990B0E942B0328E132E741E363
:100AB0005FE30E94CA03AF2D9801AE01FF900F9132
:100AC0001F91CF91DF910E949E020C947D03FA0149
:100AD000DC01AA0FBB1F9B01AC01BF5728F42227E2
:100AE00033274427507820C0B75190F4AB2F00240F
:100AF000469537952795011CA395D2F3002071F0F8
:100B0000220F331F441FB395DAF30ED00C948602E4
:100B100061307105A0E88A07B94630F49B01AC0149
:100B20006627772788279078309621F020833183B5
:100B30004283538308950E94AF050C947D030E9465
:100B4000760358F00E946F0340F029F45F3F29F0CC
:100B50000C94660351110C94B1030C946C030E9425
:100B60008E0368F39923B1F3552391F3951B550B2D
:100B7000BB27AA2762177307840738F09F5F5F4F70
:100B8000220F331F441FAA1FA9F335D00E2E3AF0AF
:100B9000E0E832D091505040E695001CCAF72BD0C7
:100BA000FE2F29D0660F771F881FBB1F2617370718
:100BB0004807AB07B0E809F0BB0B802DBF01FF274A
:100BC00093585F4F3AF09E3F510578F00C946603BE
:100BD0000C94B1035F3FE4F3983ED4F38695779588
:100BE0006795B795F7959F5FC9F7880F911D969503
:100BF000879597F90895E1E0660F771F881FBB1F5F
:100C0000621773078407BA0720F0621B730B840B0B
:100C1000BA0BEE1F88F7E09508959F3F31F0915091
:100C200020F4879577956795B795880F911D9695D0
:0A0C3000879597F90895F894FFCF17
:00000001FF
