S01100004D6563682D4C6162322E7372656328
S11300000C9434000C9451000C9451000C94510045
S11300100C9451000C9451000C9451000C94510018
S11300200C9451000C9451000C9451000C94510008
S11300300C9451000C9451000C9451000C945100F8
S11300400C9451000C9451000C9451000C945100E8
S11300500C9451000C9451000C9451000C945100D8
S11300600C9451000C94510011241FBECFEFD8E022
S1130070DEBFCDBF11E0A0E0B1E0E2E4F2E002C0F7
S113008005900D92A030B107D9F721E0A0E0B1E0CE
S113009001C01D92A030B207E1F70E94AF000C949A
S11300A01F010C9400001092C5008093C40088E1E5
S11300B08093C10086E08093C2000895E0ECF0E0F4
S11300C0908195FFFDCF8093C6000895EF92FF9233
S11300D00F931F93CF93DF9300D000D0CDB7DEB73B
S11300E069837A838B839C838E010F5F1F4F7E010C
S11300F085E0E80EF11CF80181918F010E945E00F9
S11301000E151F05C1F70F900F900F900F90DF9100
S1130110CF911F910F91FF90EF90089584B5876060
S113012084BD16BC8BE987BDEEE6F0E08081826079
S113013080830895E0E8F0E08081896080831092F4
S11301408500109284008FE79EE39093890080934A
S11301508800EFE6F0E08081826080830895CF9389
S1130160DF93CDB7DEB7C454D1090FB6F894DEBF20
S11301700FBECDBF87E60E945300CE0101960E94B8
S1130180E100CE0183960E94E1000E948E000E944D
S11301909A0080E887B988B9A99B07C0CE018396E5
S11301A00E94FC000E946600A99AB19BF5CF40E032
S11301B050E060E87FE3CE0183960E94E500B19AA7
S11301C0EBCFFC0110A211A20895FC0191A1DF0163
S11301D084E0989FA00DB11D11244D935D936D9300
S11301E07C9313979F5F977091A380A1981303C08A
S11301F09F5F977090A30895DC0190969C919097CF
S1130200E92FF0E091968C919197981779F0EE0F81
S1130210FF1FEE0FFF1FEA0FFB1F50814181328148
S113022023819F5F977090969C9304C050E040E0B8
S113023030E020E0652F742F832F922F0895F894D7
S1050240FFCFEA
S9030000FC
