:100000000C9434000C9451000C9451000C94510049
:100010000C9451000C9451000C9451000C9451001C
:100020000C9451000C9451000C9451000C9451000C
:100030000C9451000C9451000C9451000C945100FC
:100040000C9451000C9451000C9451000C945100EC
:100050000C9451000C9451000C9451000C945100DC
:100060000C9451000C94510011241FBECFEFD8E026
:10007000DEBFCDBF11E0A0E0B1E0E0ECF2E002C0F5
:1000800005900D92A030B107D9F721E0A0E0B1E0D2
:1000900001C01D92A030B207E1F70E94AC000C94A1
:1000A0005E010C9400001092C5008093C40088E1AA
:1000B0008093C10086E08093C2000895E0ECF0E0F8
:1000C000908195FFFDCF8093C6000895EF92FF9237
:1000D0000F931F93CF93DF9300D000D0CDB7DEB73F
:1000E00069837A838B839C838E010F5F1F4F7E0110
:1000F00085E0E80EF11CF80181918F010E945E00FD
:100100000E151F05C1F70F900F900F900F90DF9104
:10011000CF911F910F91FF90EF90089584B5826069
:1001200084BD85B5856085BD16BC8BE987BD089506
:10013000E0E8F0E080818083E1E8F0E080818960A0
:10014000808310928500109284008FE79EE3909345
:100150008900809388000895CF93DF93CDB7DEB7F1
:10016000C454D1090FB6F894DEBF0FBECDBF87E6E9
:100170000E945300CE0101960E94E300CE018396B7
:100180000E94E3000E948E000E94980080E887B9D8
:1001900088B9A99B07C0CE0183960E94FE000E94E9
:1001A0006600A99AB19BF5CF66B1669570E080E0D4
:1001B00090E00E942301AB01BC01CE0183960E9416
:1001C000E700B19AE6CFFC0110A211A20895FC014C
:1001D00091A1DF0184E0989FA00DB11D11244D93E2
:1001E0005D936D937C9313979F5F977091A380A10C
:1001F000981303C09F5F977090A30895DC019096B9
:100200009C919097E92FF0E091968C919197981797
:1002100079F0EE0FFF1FEE0FFF1FEA0FFB1F50815B
:100220004181328123819F5F977090969C9304C097
:1002300050E040E030E020E0652F742F832F922FB4
:100240000895E89409C097FB3EF4909580957095C9
:1002500061957F4F8F4F9F4F9923A9F0F92F96E912
:10026000BB279395F695879577956795B795F11187
:10027000F8CFFAF4BB0F11F460FF1BC06F5F7F4F24
:100280008F4F9F4F16C0882311F096E911C0772336
:1002900021F09EE8872F762F05C0662371F096E83F
:1002A000862F70E060E02AF09A95660F771F881F0E
:1002B000DAF7880F9695879597F90895F894FFCF08
:00000001FF
