:100000000C9434000C9451000C9451000C94510049
:100010000C9451000C9451000C9451000C9451001C
:100020000C9451000C9451000C9451000C9451000C
:100030000C9451000C9451000C9451000C945100FC
:100040000C9451000C9451000C9451000C945100EC
:100050000C9451000C9451000C9451000C945100DC
:100060000C9451000C94510011241FBECFEFD8E026
:10007000DEBFCDBF11E0A0E0B1E0E0E1F6E002C0FC
:1000800005900D92AC31B107D9F721E0ACE1B1E0B8
:1000900001C01D92A13AB207E1F70E94C2000C9480
:1000A00006030C940000CF92DF92EF92FF926B0157
:1000B0007C018FE591E00E9450018DE191E00E946A
:1000C000500110921C01B701A6018FE591E00E943A
:1000D0007201B701A6018DE191E00E947201809149
:1000E0001C018F5F80931C01883068F3FF90EF90B4
:1000F000DF90CF9008951092C5008093C40088E1EE
:100100008093C10086E08093C20008958093C6006A
:10011000089584B5826084BD85B5856085BD16BCB3
:100120008BE987BD0895E0E8F0E080818083E1E815
:10013000F0E08081896080831092850010928400B5
:100140008FE79EE390938B0080938A00089580E46C
:1001500080937C0087E880937A000895ECE7F0E0D4
:100160009081987F8770892B8083EAE7F0E0808117
:1001700080648083808186FDFDCF8091780090919E
:1001800079000895CF93DF93CDB7DEB7AA970FB666
:10019000F894DEBF0FBECDBF87E60E947B00CE0184
:1001A00001960E9457010E9489000E9493000E94BC
:1001B000A70060E070E0CB010E945300389A409A9B
:1001C0008CE1E0E0F1E0DE011F9601900D928A954E
:1001D000E1F7812C912C54017E018FE0E80EF11C97
:1001E0006E01EBE2CE0ED11C0F2EF0EC2F2E312C37
:1001F000F02DA99B12C08B869C86AD86BE868E0193
:10020000055F1F4FF80161918F01CE0101960E9499
:1002100062010E151F05B1F7A99AB19B2FC081E0AD
:100220000E94AE00BC0180E090E00E940B022B0116
:100230003C018F849888A988BA888E010D5E1F4F73
:10024000F80161917191819191918F01A3019201C6
:100250000E9499029B01AC01C501B4010E949F015B
:100260004B015C01A3019201C301B2010E949902FA
:100270002B013C010C151D0519F7B19ACE01019611
:100280000E945B01882309F4B4CFF101808185FFCE
:10029000B0CFCE0101960E948D010E948600A9CFA9
:1002A000FC01E05CFF4F1082319610820895FC0142
:1002B000108611860895FC0191858085981B892FF1
:1002C00087700895FC019185DF01A90FB11D6C9322
:1002D0009F5F977091878085981303C09F5F977089
:1002E000908708959C01FC01E05CFF4F9081915044
:1002F0009F70908331968081981304C08FEF890F8F
:100300008F708083F90184E0989FE00DF11D112426
:1003100040835183628373830895FC019085292F64
:1003200030E08185981741F0DF01A20FB31F8C9157
:100330009F5F9F709087089580E008955058BB2775
:10034000AA270E94B6010C945F020E94510238F065
:100350000E94580220F039F49F3F19F426F40C94BF
:100360004E020EF4E095E7FB0C944802E92F0E9440
:10037000700258F3BA17620773078407950720F0D5
:1003800079F4A6F50C9492020EF4E0950B2EBA2F98
:10039000A02D0B01B90190010C01CA01A00111248B
:1003A000FF27591B99F0593F50F4503E68F11A1637
:1003B000F040A22F232F342F4427585FF3CF4695C8
:1003C00037952795A795F0405395C9F77EF41F16EA
:1003D000BA0B620B730B840BBAF09150A1F0FF0FB4
:1003E000BB1F661F771F881FC2F70EC0BA0F621FA0
:1003F000731F841F48F4879577956795B795F79590
:100400009E3F08F0B0CF9395880F08F09927EE0F24
:10041000979587950895E89409C097FB3EF49095C9
:100420008095709561957F4F8F4F9F4F9923A9F0CD
:10043000F92F96E9BB279395F6958795779567955C
:10044000B795F111F8CFFAF4BB0F11F460FF1BC0A0
:100450006F5F7F4F8F4F9F4F16C0882311F096E933
:1004600011C0772321F09EE8872F762F05C06623E1
:1004700071F096E8862F70E060E02AF09A95660F9A
:10048000771F881FDAF7880F9695879597F9089553
:1004900097F99F6780E870E060E008959FEF80EC37
:1004A000089500240A9416161706180609060895DA
:1004B00000240A9412161306140605060895092E40
:1004C0000394000C11F4882352F0BB0F40F4BF2BAF
:1004D00011F460FF04C06F5F7F4F8F4F9F4F0895EF
:1004E00057FD9058440F551F59F05F3F71F04795E5
:1004F000880F97FB991F61F09F3F79F087950895CA
:10050000121613061406551FF2CF4695F1DF08C0E8
:10051000161617061806991FF1CF86957105610505
:1005200008940895E894BB2766277727CB0197F9AD
:1005300008950E94AC020C945F020E94510238F0B0
:100540000E94580220F0952311F00C9448020C945C
:100550004E0211240C9493020E94700270F3959F36
:10056000C1F3950F50E0551F629FF001729FBB27AA
:10057000F00DB11D639FAA27F00DB11DAA1F649F46
:100580006627B00DA11D661F829F2227B00DA11DF9
:10059000621F739FB00DA11D621F839FA00D611D7F
:1005A000221F749F3327A00D611D231F849F600DA0
:1005B000211D822F762F6A2F11249F5750409AF0C9
:1005C000F1F088234AF0EE0FFF1FBB1F661F771F55
:1005D000881F91505040A9F79E3F510580F00C9420
:1005E00048020C9493025F3FE4F3983ED4F386955F
:1005F00077956795B795F795E7959F5FC1F7FE2BC0
:10060000880F911D9695879597F90895F894FFCFD7
:10061000E743B1C36DC5E640AD695EBD6B8C4E3935
:0C062000EBD0BDB45646A82FA586E5A976
:00000001FF
