:100000000C9434000C9451000C9451000C94510049
:100010000C9451000C9451000C9451000C9451001C
:100020000C9451000C9451000C9451000C9451000C
:100030000C9451000C9451000C9451000C945100FC
:100040000C9451000C9451000C9451000C945100EC
:100050000C9451000C9451000C9451000C945100DC
:100060000C9451000C94510011241FBECFEFD8E026
:10007000DEBFCDBF11E0A0E0B1E0E2E6F7E002C0F4
:1000800005900D92AC31B107D9F721E0ACE1B1E0B8
:1000900001C01D92A23AB207E1F70E94EF000C9452
:1000A000AF030C940000CF92DF92EF92FF926B01AE
:1000B0007C0180E691E00E9409028EE191E00E94BD
:1000C000090210921D01B701A60180E691E00E948D
:1000D0001B02B701A6018EE191E00E941B028091F4
:1000E0001D018F5F80931D01883068F3FF90EF90B2
:1000F000DF90CF9008951092C5008093C40088E1EE
:100100008093C10086E08093C2000895E0ECF0E0A7
:10011000908195FFFDCF8093C6000895EF92FF92E6
:100120000F931F93CF93DF9300D000D0CDB7DEB7EE
:1001300069837A838B839C838E010F5F1F4F7E01BF
:1001400085E0E80EF11CF80181918F010E94860084
:100150000E151F05C1F70F900F900F900F90DF91B4
:10016000CF911F910F91FF90EF90089584B5826019
:1001700084BD85B5856085BD16BC8BE987BD0895B6
:10018000E0E8F0E080818083E1E8F0E08081896050
:10019000808310928500109284008FE79EE39093F5
:1001A0008B0080938A00089580E480937C0087E828
:1001B00080937A000895ECE7F0E09081987F877053
:1001C000892B8083EAE7F0E08081806480838081EE
:1001D00086FDFDCF80917800909179000895CF93AE
:1001E000DF93CDB7DEB7CE56D1090FB6F894DEBF98
:1001F0000FBECDBF87E60E947B00CE0101960E9414
:100200000902CE018D5B9F4F0E9410020E94B60032
:100210000E94C0000E94D400389A409A8CE1E0E02D
:10022000F1E0DE01A35BBF4F01900D928A95E1F7EB
:10023000C12CD12C7601AA961FAEAA97AB961FAE01
:10024000AB97AC961FAEAC97AD961FAEAD970F2E89
:10025000FBE12F2E312CF02DA99BD8C0C701B60190
:100260000E948E00A99AB19BB6C081E00E94DB007B
:10027000BC0180E090E00E94B4024B015C016E0181
:100280008DE4C80ED11CAA967FACAA97AB966FAC32
:10029000AB97AC965FACAC97AD964FACAD970F2ECD
:1002A000FBE1EF2EF12CF02DC1018E199F091816DC
:1002B00019060CF03EC087011E141F0404F5B0E0BF
:1002C000A0E0AE961FAEAE97AF961FAEAF97F0E030
:1002D000E0E0A50194016B2F7A2F8F2F9E2F0E94B3
:1002E0004203B62FA72FF82FE92F0150110989F7E4
:1002F000AE968FAFAE97AF969FAFAF9708C0B0E006
:10030000A0E0AE961FAEAE97AF961FAEAF97F601C8
:1003100020813181428153816B2F7A2FAE968FAD30
:10032000AE97AF969FADAF970E9442039B01AC0181
:1003300005C0F6012081318142815381672D762DE0
:10034000852D942D0E944802762E672E582E492E18
:10035000F1E0EF1AF10884E0C80ED11CEFEFEE16C1
:10036000FE0609F0A1CFAA962FADAA97AB963FAD96
:10037000AB97AC964FADAC97AD965FADAD97672D93
:10038000762D852D942D0E9447022AE63BE046E318
:100390005BE30E94420320E030E04AE754E40E941D
:1003A00042036B017C0180911C01811107C0C701D0
:1003B000B6010E94530081E080931C01B19AAA9675
:1003C0007FAEAA97AB966FAEAB97AC965FAEAC978D
:1003D000AD964FAEAD97CE018D5B9F4F0E9414023C
:1003E000882309F439CFCE018D5B9F4F0E943602DE
:1003F0000E94860031CF81E00E94DB00BC0180E0DA
:1004000090E00E94B4024B015C0139CFB199F3CF67
:10041000E2CFFC01E05CFF4F10823196108208951C
:10042000FC01108611860895FC0191858085981B3A
:10043000892F877008959C01FC01E05CFF4F90813B
:1004400091509F70908331968081981304C08FEFF4
:10045000890F8F708083F90184E0989FE00DF11D72
:10046000112440835183628373830895FC01908536
:10047000292F30E08185981741F0DF01A20FB31FCB
:100480008C919F5F9F709087089580E008955058E9
:10049000BB27AA270E945F020C9408030E94FA025D
:1004A00038F00E94010320F039F49F3F19F426F43C
:1004B0000C94F7020EF4E095E7FB0C94F102E92F9F
:1004C0000E94190358F3BA17620773078407950748
:1004D00020F079F4A6F50C943B030EF4E0950B2E76
:1004E000BA2FA02D0B01B90190010C01CA01A00186
:1004F0001124FF27591B99F0593F50F4503E68F1E1
:100500001A16F040A22F232F342F4427585FF3CF21
:10051000469537952795A795F0405395C9F77EF4F2
:100520001F16BA0B620B730B840BBAF09150A1F03B
:10053000FF0FBB1F661F771F881FC2F70EC0BA0FC1
:10054000621F731F841F48F4879577956795B79549
:10055000F7959E3F08F0B0CF9395880F08F0992744
:10056000EE0F979587950895E89409C097FB3EF4A0
:1005700090958095709561957F4F8F4F9F4F9923F0
:10058000A9F0F92F96E9BB279395F695879577956E
:100590006795B795F111F8CFFAF4BB0F11F460FF2E
:1005A0001BC06F5F7F4F8F4F9F4F16C0882311F086
:1005B00096E911C0772321F09EE8872F762F05C09A
:1005C000662371F096E8862F70E060E02AF09A9535
:1005D000660F771F881FDAF7880F9695879597F92A
:1005E000089597F99F6780E870E060E008959FEFB5
:1005F00080EC089500240A941616170618060906BA
:10060000089500240A941216130614060506089588
:10061000092E0394000C11F4882352F0BB0F40F410
:10062000BF2B11F460FF04C06F5F7F4F8F4F9F4F50
:10063000089557FD9058440F551F59F05F3F71F0D2
:100640004795880F97FB991F61F09F3F79F0879539
:100650000895121613061406551FF2CF4695F1DFC2
:1006600008C0161617061806991FF1CF8695710552
:10067000610508940895E894BB2766277727CB0186
:1006800097F908950E9455030C9408030E94FA02FA
:1006900038F00E94010320F0952311F00C94F10230
:1006A0000C94F70211240C943C030E94190370F37C
:1006B000959FC1F3950F50E0551F629FF001729F07
:1006C000BB27F00DB11D639FAA27F00DB11DAA1F16
:1006D000649F6627B00DA11D661F829F2227B00D63
:1006E000A11D621F739FB00DA11D621F839FA00DEE
:1006F000611D221F749F3327A00D611D231F849F3E
:10070000600D211D822F762F6A2F11249F57504094
:100710009AF0F1F088234AF0EE0FFF1FBB1F661F0F
:10072000771F881F91505040A9F79E3F510580F0D8
:100730000C94F1020C943C035F3FE4F3983ED4F335
:10074000869577956795B795F795E7959F5FC1F77C
:10075000FE2B880F911D9695879597F90895F8942B
:02076000FFCFC9
:10076200A586E5A95646A82FEBD0BDB46B8C4E39B1
:0C077200AD695EBD6DC5E640E743B1C354
:00000001FF
